:020000020000FC
:1000000078D017D03CE07FD04AD054D181E07AE05C
:100010005BD108E4502F7DD005E4502F7AD00CE45A
:10002000502F77D00CE4502F74D00FE4502F71D0A4
:10003000FFCFE8E3F0E00895A81F2200032000DAD4
:10004000028D14AFA1C80091200401600093200428
:100050000895009120040E7F0093200408950091DC
:1000600020040260009320040895009120040D7F75
:10007000009320040895009120040C7F0093200435
:10008000009124040C7F009324040895DCDF05E034
:100090002AD1E5DF05E027D118E70BD00895D3DF9B
:1000A00005E021D1E2DF05E01ED1D3DF05E01BD161
:1000B000089528E0C8DF05E016D1012F007807FD7C
:1000C000C8DF05E010D1D1DF05E00DD1110FC7DF8A
:1000D00005E009D12A9571F7BCDF05E004D1C5DF41
:1000E00005E001D1BCDF05E0FED0ADDF05E0FBD0CF
:1000F0000895C1DFCBDF10E0DCDF0895BCDFC6DF91
:1001000010E4D7DF08954591142FD3DF3A95D9F73E
:100110000895E4E3F1E040E2541B39F0002760E089
:10012000EA5FFF4F03950517D9F7E8DF36E0EBDF0D
:10013000B6DF089500000000000000002F0000005E
:10014000000700070000147F147F1400242A7F2A70
:10015000120062640813230036495522500000053E
:1001600003000000001C224100000041221C00008E
:1001700014083E08140008083E0808000000A060AB
:100180000000080808080800006060000000201057
:10019000080402003E5149453E0000427F400000F5
:1001A0004261514946002141454B31001814127FEC
:1001B00010002745454539003C4A49493000017146
:1001C00009050300364949493600064949291E00F8
:1001D00000363600000000563600000008142241A8
:1001E0000000141414141400004122140800020129
:1001F00051090600324959513E007C1211127C000F
:100200007F49494936003E41414122007F41412218
:100210001C007F49494941007F09090901003E410D
:1002200049497A007F0808087F0000417F410000AB
:100230002040413F01007F08142241007F404040A0
:1002400040007F020C027F007F0408107F003E41C7
:1002500041413E007F09090906003E4151215E00EF
:100260007F091929460046494949310001017F01AA
:1002700001003F4040403F001F2040201F003F4002
:1002800038403F0063140814630007087008070033
:10029000615149454300007F4141000002040810BC
:1002A00020000041417F00000402010204004040A0
:1002B0004040400044E022DF30E810E0FADE3A95AA
:1002C000E1F74A95C9F7089514DF12E2F2DE182F1C
:1002D000F0DE13E0EEDE11E2ECDE172FEADE1FE7C0
:1002E000E8DEDDDE089503D00A95E9F708950F935F
:0402F0000F910895CD
:00000001FF
