:020000020000FC
:0200000026C018
:10004A0000C0189508ED04BF01E000936100F5E0D7
:10005A00ECE6BEE3A0E005910D9313951530D9F7B0
:10006A0008D1BEE3A0E01EE49ED01D91103021F01D
:10007A00E1D004E16FD2F7CFD7E0C0ED5AD21EE447
:10008A0092D011E0B8D004E165D2F5E0E2E71EE4CF
:10009A008AD01191103021F0CDD004E15BD2F7CF94
:1000AA001EE481D010ECA7D004E154D2F5E0E8E7D1
:1000BA001EE479D01191103021F0BCD004E14AD26B
:1000CA00F7CF1EE470D019EC96D004E143D2F5E0E4
:1000DA00EEE71EE468D01191103021F0ABD004E1B4
:1000EA0039D2F7CF1EE45FD01FEC85D01EE45BD077
:1000FA001CE4A0D003D116D127D143D12AD124D1CF
:10010A0028D119D11EE44FD01DEC75D047D15FD14B
:10011A001EE449D0152F8ED002E31CD21EE443D030
:10012A00162F88D002E316D21EE43DD002E312D283
:10013A005FD115E660D002E30DD21EE434D0142F4D
:10014A0079D002E307D21EE42ED0152F73D002E332
:10015A0001D21EE428D0162F6DD002E3FBD19AE01B
:10016A007DD18CD19ED1ABD11EE41DD002E3F2D158
:10017A0016E841D002E3EED11EE415D0142F5AD06E
:10018A0002E3E8D11EE40FD0152F54D002E3E2D1E6
:10019A001EE409D0162F4ED002E3DCD19A95F9F667
:1001AA00A9CF50E2089508E20093160803E00093ED
:1001BA00130808E00093140801E000931508012FC2
:1001CA00009317080ED004FD08D00895012F00935C
:1001DA00180807D004FD01D0089503E0009314081D
:1001EA0008950091150806FFFCCF0895009115089F
:1001FA0007FFFCCF089510930C3E107F1860E6DFCE
:10020A0004E1A8D11C60E2DF04E1A4D11860DEDFBA
:10021A0004E1A0D110910C3E1295107F1860D6DF30
:10022A0004E198D11C60D2DF04E194D11860CEDFDA
:10023A00D4DF089510930C3E107F1960C7DF04E1E4
:10024A0089D11D60C3DF04E185D11960BFDF04E1F4
:10025A0081D110910C3E1295107F1960B7DF04E12D
:10026A0079D11D60B3DF04E175D11960AFDFB5DF65
:10027A00089502E362D11EE496DF1CE3A7DF04E1DE
:10028A0069D118E3A3DFA9DF04E157D11EE48BDFAC
:10029A001CE39CDF04E15ED118E398DF9EDF04E1F2
:1002AA004CD11EE480DF1CE391DF04E153D118E353
:1002BA008DDF93DF04E141D11EE475DF1CE286DFA6
:1002CA0004E148D118E282DF88DF04E136D11EE476
:1002DA006ADF18E290DF04E13DD11EE464DF1EE02C
:1002EA008ADF1EE460DF16E086DF04E133D11EE414
:1002FA005ADF11E080DF04E12DD1089504E0009374
:10030A0012040093130406E00093010603E5009328
:10031A00020602E00093060601E000930A06009333
:10032A000B0608950091000601600093000601E0A3
:10033A0000930806089500910006006000930006E5
:10034A0000E000930806089500910B060170E1F39E
:10035A000895109111060091100626E0169507954A
:10036A002A95D9F7009106060370033029F41093F1
:10037A000B3E00930A3E08951093093E0093093EEE
:10038A000895009106060370033021F40260009379
:10039A0006060895036000930606089520E08894EF
:1003AA000636120768F0889422E00830120708F42B
:1003BA00089502E000930B3E08E000930A3E089578
:1003CA0006E600930A3E00E000930B3E0895009172
:1003DA000A3E10910B3E222788940656120B102FC4
:1003EA0001E10903800107E3011B112718D00895D1
:1003FA0030E044E00091083E1091093E301B410B69
:10040A000DE00B03312D0DE00C03412D11E22227E3
:10041A008894E10EF21E0E2D112701D0089540E0B6
:10042A0050E060E070E320E088940436120754F448
:10043A0020E088940A3012075CF4602F470F570FA8
:10044A00670F0895332788940456130B4395EBCF0F
:10045A00332788940A50130B5395E5CF0DE0009388
:10046A00000A05E00093400A03E00093410A01E113
:10047A000093440A01E00093450A08950091460A50
:10048A0000FFFCCF05D008950091470A0170089536
:10049A00E0E0FEE300914C0A019300914D0A0193BA
:1004AA00089500E00093400A0093450A00934D0A1C
:1004BA0000934C0A00934B0A00934A0A0895E0E01D
:1004CA00FEE30191108106D0E0E0FEE30191108184
:1004DA00A6DF0895EF92FF920F931F932F933F93F6
:1004EA004F93003011F4D03069F0202F312F06E9F4
:1004FA0018E9EE24FF1841E1001F111F4A9571F413
:10050A0016950795E0E0FEE3019310834F913F9122
:10051A002F911F910F91FF90EF900895EE1CFF1CF1
:10052A00E21AF30A20F4E20EF31E8894E5CF089447
:10053A00E3CF07D02197E9F7089503D00A95E9F7A1
:10054A000895CF93DF93CFEBD9E02197F1F7DF91AD
:10055A00CF91089503D00A95E9F708950F930F9163
:10056A00089548454C4C4F00535045454400544566
:0A057A004D5000004655454C0000AE
:00000001FF
